{
  "contractName": "MyToken",
  "abi": [
    {
      "constant": true,
      "inputs": [],
      "name": "name",
      "outputs": [
        {
          "name": "",
          "type": "string"
        }
      ],
      "payable": false,
      "stateMutability": "view",
      "type": "function",
      "signature": "0x06fdde03"
    },
    {
      "constant": true,
      "inputs": [],
      "name": "totalSupply",
      "outputs": [
        {
          "name": "",
          "type": "uint256"
        }
      ],
      "payable": false,
      "stateMutability": "view",
      "type": "function",
      "signature": "0x18160ddd"
    },
    {
      "constant": true,
      "inputs": [],
      "name": "standard",
      "outputs": [
        {
          "name": "",
          "type": "string"
        }
      ],
      "payable": false,
      "stateMutability": "view",
      "type": "function",
      "signature": "0x5a3b7e42"
    },
    {
      "constant": true,
      "inputs": [
        {
          "name": "",
          "type": "address"
        }
      ],
      "name": "balanceOf",
      "outputs": [
        {
          "name": "",
          "type": "uint256"
        }
      ],
      "payable": false,
      "stateMutability": "view",
      "type": "function",
      "signature": "0x70a08231"
    },
    {
      "constant": true,
      "inputs": [],
      "name": "symbol",
      "outputs": [
        {
          "name": "",
          "type": "string"
        }
      ],
      "payable": false,
      "stateMutability": "view",
      "type": "function",
      "signature": "0x95d89b41"
    },
    {
      "constant": true,
      "inputs": [
        {
          "name": "",
          "type": "address"
        },
        {
          "name": "",
          "type": "address"
        }
      ],
      "name": "allowance",
      "outputs": [
        {
          "name": "",
          "type": "uint256"
        }
      ],
      "payable": false,
      "stateMutability": "view",
      "type": "function",
      "signature": "0xdd62ed3e"
    },
    {
      "inputs": [
        {
          "name": "_initialSupply",
          "type": "uint256"
        }
      ],
      "payable": false,
      "stateMutability": "nonpayable",
      "type": "constructor",
      "signature": "constructor"
    },
    {
      "anonymous": false,
      "inputs": [
        {
          "indexed": true,
          "name": "_owner",
          "type": "address"
        },
        {
          "indexed": true,
          "name": "_to",
          "type": "address"
        },
        {
          "indexed": false,
          "name": "_value",
          "type": "uint256"
        }
      ],
      "name": "Approval",
      "type": "event",
      "signature": "0x8c5be1e5ebec7d5bd14f71427d1e84f3dd0314c0f7b2291e5b200ac8c7c3b925"
    },
    {
      "anonymous": false,
      "inputs": [
        {
          "indexed": true,
          "name": "_from",
          "type": "address"
        },
        {
          "indexed": true,
          "name": "_to",
          "type": "address"
        },
        {
          "indexed": false,
          "name": "_value",
          "type": "uint256"
        }
      ],
      "name": "Transfer",
      "type": "event",
      "signature": "0xddf252ad1be2c89b69c2b068fc378daa952ba7f163c4a11628f55a4df523b3ef"
    },
    {
      "constant": false,
      "inputs": [
        {
          "name": "_to",
          "type": "address"
        },
        {
          "name": "_value",
          "type": "uint256"
        }
      ],
      "name": "transfer",
      "outputs": [
        {
          "name": "success",
          "type": "bool"
        }
      ],
      "payable": false,
      "stateMutability": "nonpayable",
      "type": "function",
      "signature": "0xa9059cbb"
    },
    {
      "constant": false,
      "inputs": [
        {
          "name": "_spender",
          "type": "address"
        },
        {
          "name": "_value",
          "type": "uint256"
        }
      ],
      "name": "approve",
      "outputs": [
        {
          "name": "success",
          "type": "bool"
        }
      ],
      "payable": false,
      "stateMutability": "nonpayable",
      "type": "function",
      "signature": "0x095ea7b3"
    }
  ],
  "bytecode": "0x60806040526040805190810160405280600881526020017f4d7920546f6b656e0000000000000000000000000000000000000000000000008152506000908051906020019061004f929190610176565b506040805190810160405280600381526020017f4d595400000000000000000000000000000000000000000000000000000000008152506001908051906020019061009b929190610176565b506040805190810160405280600d81526020017f4d7920546f6b656e2076312e3000000000000000000000000000000000000000815250600290805190602001906100e7929190610176565b503480156100f457600080fd5b50604051602080610afc8339810180604052602081101561011457600080fd5b810190808051906020019092919050505080600460003373ffffffffffffffffffffffffffffffffffffffff1673ffffffffffffffffffffffffffffffffffffffff16815260200190815260200160002081905550806003819055505061021b565b828054600181600116156101000203166002900490600052602060002090601f016020900481019282601f106101b757805160ff19168380011785556101e5565b828001600101855582156101e5579182015b828111156101e45782518255916020019190600101906101c9565b5b5090506101f291906101f6565b5090565b61021891905b808211156102145760008160009055506001016101fc565b5090565b90565b6108d28061022a6000396000f3fe60806040526004361061008e576000357c0100000000000000000000000000000000000000000000000000000000900463ffffffff16806306fdde0314610093578063095ea7b31461012357806318160ddd146101965780635a3b7e42146101c157806370a082311461025157806395d89b41146102b6578063a9059cbb14610346578063dd62ed3e146103b9575b600080fd5b34801561009f57600080fd5b506100a861043e565b6040518080602001828103825283818151815260200191508051906020019080838360005b838110156100e85780820151818401526020810190506100cd565b50505050905090810190601f1680156101155780820380516001836020036101000a031916815260200191505b509250505060405180910390f35b34801561012f57600080fd5b5061017c6004803603604081101561014657600080fd5b81019080803573ffffffffffffffffffffffffffffffffffffffff169060200190929190803590602001909291905050506104dc565b604051808215151515815260200191505060405180910390f35b3480156101a257600080fd5b506101ab6105ce565b6040518082815260200191505060405180910390f35b3480156101cd57600080fd5b506101d66105d4565b6040518080602001828103825283818151815260200191508051906020019080838360005b838110156102165780820151818401526020810190506101fb565b50505050905090810190601f1680156102435780820380516001836020036101000a031916815260200191505b509250505060405180910390f35b34801561025d57600080fd5b506102a06004803603602081101561027457600080fd5b81019080803573ffffffffffffffffffffffffffffffffffffffff169060200190929190505050610672565b6040518082815260200191505060405180910390f35b3480156102c257600080fd5b506102cb61068a565b6040518080602001828103825283818151815260200191508051906020019080838360005b8381101561030b5780820151818401526020810190506102f0565b50505050905090810190601f1680156103385780820380516001836020036101000a031916815260200191505b509250505060405180910390f35b34801561035257600080fd5b5061039f6004803603604081101561036957600080fd5b81019080803573ffffffffffffffffffffffffffffffffffffffff16906020019092919080359060200190929190505050610728565b604051808215151515815260200191505060405180910390f35b3480156103c557600080fd5b50610428600480360360408110156103dc57600080fd5b81019080803573ffffffffffffffffffffffffffffffffffffffff169060200190929190803573ffffffffffffffffffffffffffffffffffffffff169060200190929190505050610881565b6040518082815260200191505060405180910390f35b60008054600181600116156101000203166002900480601f0160208091040260200160405190810160405280929190818152602001828054600181600116156101000203166002900480156104d45780601f106104a9576101008083540402835291602001916104d4565b820191906000526020600020905b8154815290600101906020018083116104b757829003601f168201915b505050505081565b600081600560003373ffffffffffffffffffffffffffffffffffffffff1673ffffffffffffffffffffffffffffffffffffffff16815260200190815260200160002060008573ffffffffffffffffffffffffffffffffffffffff1673ffffffffffffffffffffffffffffffffffffffff168152602001908152602001600020819055508273ffffffffffffffffffffffffffffffffffffffff163373ffffffffffffffffffffffffffffffffffffffff167f8c5be1e5ebec7d5bd14f71427d1e84f3dd0314c0f7b2291e5b200ac8c7c3b925846040518082815260200191505060405180910390a36001905092915050565b60035481565b60028054600181600116156101000203166002900480601f01602080910402602001604051908101604052809291908181526020018280546001816001161561010002031660029004801561066a5780601f1061063f5761010080835404028352916020019161066a565b820191906000526020600020905b81548152906001019060200180831161064d57829003601f168201915b505050505081565b60046020528060005260406000206000915090505481565b60018054600181600116156101000203166002900480601f0160208091040260200160405190810160405280929190818152602001828054600181600116156101000203166002900480156107205780601f106106f557610100808354040283529160200191610720565b820191906000526020600020905b81548152906001019060200180831161070357829003601f168201915b505050505081565b600081600460003373ffffffffffffffffffffffffffffffffffffffff1673ffffffffffffffffffffffffffffffffffffffff168152602001908152602001600020541015151561077857600080fd5b81600460003373ffffffffffffffffffffffffffffffffffffffff1673ffffffffffffffffffffffffffffffffffffffff1681526020019081526020016000206000828254039250508190555081600460008573ffffffffffffffffffffffffffffffffffffffff1673ffffffffffffffffffffffffffffffffffffffff168152602001908152602001600020600082825401925050819055508273ffffffffffffffffffffffffffffffffffffffff163373ffffffffffffffffffffffffffffffffffffffff167fddf252ad1be2c89b69c2b068fc378daa952ba7f163c4a11628f55a4df523b3ef846040518082815260200191505060405180910390a36001905092915050565b600560205281600052604060002060205280600052604060002060009150915050548156fea165627a7a72305820d77b4fe9156586e7b9f5cc85e7fefe076045990f6826cf37e77519c97f03158c0029",
  "source": "pragma solidity >=0.4.21 <0.6.0;\r\n\r\ncontract MyToken {\r\n\tstring public name = \"My Token\";\r\n\tstring public symbol = \"MYT\";\r\n\tstring public standard = \"My Token v1.0\";\r\n\tuint256 public totalSupply;\r\n\r\n\tevent Approval(\r\n\t\taddress indexed _owner,\r\n\t\taddress indexed _to,\r\n\t\tuint256 _value);\r\n\r\n\tevent Transfer(\r\n\t\taddress indexed _from, \r\n\t\taddress indexed _to,\r\n\t\tuint256 _value);\r\n\r\n\tmapping (address => uint256) public balanceOf;\r\n\r\n\t//allowance\r\n\tmapping (address => mapping (address => uint256)) public allowance;\r\n\t\r\n\tconstructor (uint256 _initialSupply) public {\r\n\t\tbalanceOf[msg.sender] = _initialSupply;\r\n\t\ttotalSupply = _initialSupply;\r\n\t\t//allocate the inital Supply\r\n\t}\r\n\r\n\t//transfer \r\n\tfunction transfer (address _to, uint256 _value) public returns(bool success) {\r\n\t\t//exception of account doesn't have enuf\r\n\t\trequire(balanceOf[msg.sender] >= _value); \r\n\t\t//runs the code below only if require is true\r\n\t\t//transfer the balance\r\n\t\tbalanceOf[msg.sender] -= _value;\r\n\t\tbalanceOf[_to] += _value;\r\n\t\t//transfer event\r\n\t\temit Transfer(msg.sender, _to, _value);\r\n\t\t//return boolean\r\n\t\treturn true;\r\n\r\n\t}\r\n\t\r\n\t//delegated transfer\r\n\r\n\t//approve\r\n\tfunction approve (address _spender, uint256 _value) public returns(bool success) {\r\n\t\t//allowance\r\n\t\tallowance[msg.sender][_spender] = _value;\r\n\t\t//approval event\r\n\t\temit Approval(msg.sender, _spender, _value);\r\n\r\n\t\treturn true;\r\n\t}\r\n\t\r\n\r\n\t//transferFrom\r\n\r\n}",
  "sourcePath": "H:/dapp/Projects/token_sale/contracts/MyToken.sol",
  "compiler": {
    "name": "solc",
    "version": "0.5.0+commit.1d4f565a.Emscripten.clang"
  },
  "schemaVersion": "3.0.0",
  "updatedAt": "2019-01-08T14:30:31.314Z",
  "devdoc": {
    "methods": {}
  },
  "userdoc": {
    "methods": {}
  }
}