{
  "contractName": "MyToken",
  "abi": [
    {
      "constant": true,
      "inputs": [],
      "name": "totalSupply",
      "outputs": [
        {
          "name": "",
          "type": "uint256"
        }
      ],
      "payable": false,
      "stateMutability": "view",
      "type": "function",
      "signature": "0x18160ddd"
    },
    {
      "inputs": [],
      "payable": false,
      "stateMutability": "nonpayable",
      "type": "constructor",
      "signature": "constructor"
    }
  ],
  "bytecode": "0x608060405234801561001057600080fd5b50620f4240600081905550609e806100296000396000f3fe608060405260043610603f576000357c0100000000000000000000000000000000000000000000000000000000900463ffffffff16806318160ddd146044575b600080fd5b348015604f57600080fd5b506056606c565b6040518082815260200191505060405180910390f35b6000548156fea165627a7a7230582029f3994697eab1e6d42f581721c8099a11608948c778909f1cbc165bf622c4ab0029",
  "source": "pragma solidity >=0.4.21 <0.6.0;\r\n\r\ncontract MyToken {\r\n\tuint256 public totalSupply;\r\n\t//contructor\r\n\tconstructor () public {\r\n\t\ttotalSupply = 1000000;\r\n\t}\r\n\r\n\t//set the total number of tokens\r\n\t//read the total number of tokens\r\n\r\n}",
  "sourcePath": "H:/dapp/Projects/token_sale/token_sale/contracts/MyToken.sol",
  "compiler": {
    "name": "solc",
    "version": "0.5.0+commit.1d4f565a.Emscripten.clang"
  },
  "schemaVersion": "3.0.0",
  "updatedAt": "2019-01-08T11:05:31.456Z",
  "devdoc": {
    "methods": {}
  },
  "userdoc": {
    "methods": {}
  }
}