{
  "contractName": "MyTokenSale",
  "abi": [
    {
      "constant": true,
      "inputs": [],
      "name": "tokensSold",
      "outputs": [
        {
          "name": "",
          "type": "uint256"
        }
      ],
      "payable": false,
      "stateMutability": "view",
      "type": "function",
      "signature": "0x518ab2a8"
    },
    {
      "constant": true,
      "inputs": [],
      "name": "tokenContract",
      "outputs": [
        {
          "name": "",
          "type": "address"
        }
      ],
      "payable": false,
      "stateMutability": "view",
      "type": "function",
      "signature": "0x55a373d6"
    },
    {
      "constant": true,
      "inputs": [],
      "name": "tokenPrice",
      "outputs": [
        {
          "name": "",
          "type": "uint256"
        }
      ],
      "payable": false,
      "stateMutability": "view",
      "type": "function",
      "signature": "0x7ff9b596"
    },
    {
      "inputs": [
        {
          "name": "_tokenContract",
          "type": "address"
        },
        {
          "name": "_tokenPrice",
          "type": "uint256"
        }
      ],
      "payable": false,
      "stateMutability": "nonpayable",
      "type": "constructor",
      "signature": "constructor"
    },
    {
      "constant": false,
      "inputs": [
        {
          "name": "_numberOfTokens",
          "type": "uint256"
        }
      ],
      "name": "buyTokens",
      "outputs": [],
      "payable": true,
      "stateMutability": "payable",
      "type": "function",
      "signature": "0x3610724e"
    }
  ],
  "bytecode": "0x608060405234801561001057600080fd5b506040516040806102978339810180604052604081101561003057600080fd5b810190808051906020019092919080519060200190929190505050336000806101000a81548173ffffffffffffffffffffffffffffffffffffffff021916908373ffffffffffffffffffffffffffffffffffffffff16021790555081600160006101000a81548173ffffffffffffffffffffffffffffffffffffffff021916908373ffffffffffffffffffffffffffffffffffffffff1602179055508060028190555050506101b3806100e46000396000f3fe608060405260043610610062576000357c0100000000000000000000000000000000000000000000000000000000900463ffffffff1680633610724e14610067578063518ab2a81461009557806355a373d6146100c05780637ff9b59614610117575b600080fd5b6100936004803603602081101561007d57600080fd5b8101908080359060200190929190505050610142565b005b3480156100a157600080fd5b506100aa610155565b6040518082815260200191505060405180910390f35b3480156100cc57600080fd5b506100d561015b565b604051808273ffffffffffffffffffffffffffffffffffffffff1673ffffffffffffffffffffffffffffffffffffffff16815260200191505060405180910390f35b34801561012357600080fd5b5061012c610181565b6040518082815260200191505060405180910390f35b8060036000828254019250508190555050565b60035481565b600160009054906101000a900473ffffffffffffffffffffffffffffffffffffffff1681565b6002548156fea165627a7a7230582083a7a7adacaafe1142a66bc734a9e792e05139a5eea1699894630aefa387bbd60029",
  "source": "pragma solidity >=0.4.21 <0.6.0;\r\n\r\nimport \"./MyToken.sol\";\r\n\r\ncontract MyTokenSale {\r\n\taddress admin;\r\n\tMyToken public tokenContract;\r\n\tuint256 public tokenPrice;\r\n\tuint256 public tokensSold;\r\n\r\n\tconstructor (MyToken _tokenContract, uint256 _tokenPrice) public {\r\n\r\n\t\t//assign an admin\r\n\t\tadmin = msg.sender;\r\n\t\t//token contract\r\n\t\ttokenContract = _tokenContract;\r\n\t\t//token price\r\n\t\ttokenPrice = _tokenPrice;\r\n\t}\r\n\r\n\t//buy tokens\r\n\tfunction buyTokens (uint256 _numberOfTokens) public payable {\r\n\t\t//require that value is equal to tokens\r\n\t\t//require that there are enuf tokens in the contract\r\n\t\t//require that transfer is successful\r\n\t\t//keep track of the no. of tokens solidity\r\n\t\ttokensSold += _numberOfTokens;\r\n\t\t//trigger a sell event\r\n\t}\r\n\t\r\n\r\n}",
  "sourcePath": "H:/dapp/projects/token_sale/contracts/MyTokenSale.sol",
  "compiler": {
    "name": "solc",
    "version": "0.5.0+commit.1d4f565a.Emscripten.clang"
  },
  "schemaVersion": "3.0.0",
  "updatedAt": "2019-01-13T09:08:11.926Z",
  "devdoc": {
    "methods": {}
  },
  "userdoc": {
    "methods": {}
  }
}